S010000066343035726774362E7372656392
S3150800000000000220291D0008551C00085D1C000878
S31508000010651C00086D1C0008751C0008000000001F
S315080000200000000000000000000000007D1C000821
S315080000308B1C000800000000991C0008A71C00087B
S31508000040791D0008791D0008791D0008791D00082A
S31508000050791D0008791D0008791D0008791D00081A
S31508000060791D0008791D0008791D0008791D00080A
S31508000070791D0008791D0008791D0008791D0008FA
S31508000080791D0008791D0008791D0008791D0008EA
S31508000090B51C0008791D0008791D0008791D00089F
S315080000A0791D0008791D0008791D0008791D0008CA
S315080000B0C91C0008DD1C0008791D0008791D000808
S315080000C0791D0008791D0008791D0008791D0008AA
S315080000D0791D0008791D0008791D0008791D00089A
S315080000E0791D0008791D0008791D0008791D00088A
S315080000F0791D0008791D0008791D0008791D00087A
S31508000100791D0008791D0008791D0008791D000869
S31508000110791D0008791D0008791D0008791D000859
S31508000120791D0008791D0008791D0008791D000849
S31508000130791D00080000000000000000791D000875
S31508000140791D0008791D0008791D0008F11C0008B2
S31508000150791D0008791D0008791D0008791D000819
S31508000160791D0008791D0008791D0008791D000809
S31508000170791D0008791D0008000000000000000035
S30D08000180791D0008791D00082D
S3150800018810B5054C237833B9044B13B10448AFF3BB
S3150800019800800123237010BDFC0000200000000029
S315080001A8D0AC000808B5034B1BB103490348AFF3A5
S315080001B8008008BD0000000000010020D0AC00083F
S315080001C853B94AB9002908BF00281CBF4FF0FF31A8
S315080001D84FF0FF3000F088B9ADF1080C6DE904CE90
S315080001E800F006F8DDF804E0DDE9022304B07047FC
S315080001F82DE9F047089D8E4604468846002B4AD1C5
S315080002088A42174662D9B2FA82F64EB1C6F1200377
S3150800021801FA06F820FA03F3B74043EA0808B44097
S315080002284FEA174E1FFA87FCB8FBFEF1230C0EFBA4
S31508000238118843EA084301FB0CF29A4209D9FB18CC
S3150800024801F1FF3080F0EA809A4240F2E7800239ED
S315080002583B449A1AA3B2B2FBFEF00EFB102243EAFD
S31508000268024300FB0CFC9C4509D9FB1800F1FF3238
S3150800027880F0D6809C4540F2D3803B44023840EA59
S315080002880140A3EB0C0300211DB1F3400022C5E988
S315080002980032BDE8F0878B4205D90DB1C5E90001E2
S315080002A800210846F5E7B3FA83F1002946D17345D4
S315080002B802D3824200F20581841A6EEB03020120FA
S315080002C89046002DE5D0C5E90048E2E7002A00F087
S315080002D89080B2FA82F6002E40F0A4808A1A030C9F
S315080002E84FEA174E80B2BCB20121B2FBFEFC0EFBE8
S315080002F81C2243EA024304FB0CF29A4207D9FB186C
S315080003080CF1FF3802D29A4200F2E080C4469B1AE2
S31508000318B3FBFEF20EFB123340EA034302FB04F476
S315080003289C4207D9FB1802F1FF3002D29C4200F220
S31508000338CA8002461B1B42EA0C40A5E7C1F1200603
S315080003488B4022FA06F71F430EFA01F420FA06F341
S315080003582EFA06FE4FEA1749234300FA01F81FFA50
S3150800036887FCBEFBF9F01C0C09FB10EE44EA0E44A8
S3150800037800FB0CFEA64502FA01F209D93C1900F160
S31508000388FF3A80F09C80A64540F2998002383C44A2
S31508000398A4EB0E041FFA83FEB4FBF9F309FB134416
S315080003A84EEA044403FB0CFCA44508D93C1903F19E
S315080003B8FF3E80F08280A4457FD9023B3C4443EA4D
S315080003C80040A4EB0C04A0FB02EC64457346E14626
S315080003D862D35FD05DB1B8EB030264EB090404FA93
S315080003E806F622FA01F31E43CC40C5E9006400214B
S315080003F84FE7B1FBF2FC010C41EA0E4180B240EA34
S3150800040801423B4638463C46B846BE462026B1FB1E
S31508000418F7F1A2EB080241EA0C4166E7014618E73C
S3150800042810462CE7C6F120022EFA02F3B740B1406F
S3150800043820FA02F24FEA174E0A43B3FBFEF8BCB29B
S315080004480EFB1833110C41EA034108FB04F9B040C6
S3150800045889454FEA104380B23ED9791808F1FF3C1E
S3150800046801D289451FD8A1EB0901B1FBFEF909FBA1
S3150800047804F80EFB191192B242EA0142424529D202
S31508000488BA1809F1FF31C4D24245C2D2A9F102010C
S315080004983A44BEE7F0459DD2BEEB02036CEB070C67
S315080004A80138E14696E7A7EB09094944A8F1020C81
S315080004B8B1FBFEF909FB04F8DBE773467FE750460C
S315080004C866E70846FDE63B44023A33E7ACF1020C18
S315080004D83B441CE749469CE7A1EB0901C446B1FB26
S315080004E8FEF909FB04F8C4E7704700BF80B500AFFA
S315080004F800F02CF900F01EF900F002F800BF80BDE4
S3150800050880B500AF00F004F800F08EF800BF80BD93
S3150800051880B500AF0E4B0F4A1A600D4B4FF4614277
S315080005285A600B4B00229A60094B0022DA60084B86
S3150800053800221A61064B00229A61054B0C225A6161
S31508000548034B0022DA61024805F0A4FF00BF80BD0C
S31508000558180100200044004080B586B000AFB96095
S315080005687A603B600346FB8104F036FE03462C4A54
S31508000578A2FB03239B093B610023FB7548E0FA8924
S31508000588FB7D284911F813301846FB7D25495B0081
S315080005980B445B780344013302FB03F31A463B69B1
S315080005A8B3FBF2F101FB02F29B1A002B2DD1FA8953
S315080005B8FB7D1C4911F813301846FB7D19495B0069
S315080005C80B445B780344013302FB03F31A463B6981
S315080005D8B3FBF2F39AB2BB681A80BB681B88002B78
S315080005E813D0BB681B88B3F5806F0ED8FB7D0D4A00
S315080005F812F813207B681A70FB7D0A4A5B001344BD
S315080006085A783B681A70012306E0FB7D0133FB75AF
S31508000618FB7D112BB3D9002318461837BD4680BD74
S31508000628D34D62103CAD000880B58EB000AF0023EC
S315080006387B85002387F82930002387F8283040F27D
S315080006486763FB6207F1280307F1290207F12A0104
S315080006584FF4FA70FFF780FF324B334A1A60314B72
S3150800066800221A762F4B00225A762E4B00229A76AB
S315080006782C4B0122DA762B4B00221A77294B0022BB
S315080006885A77284B00229A60264B0022DA6097F898
S315080006982930013B1B04234A136197F82830013B8C
S315080006A81B05204A53617B8D1A461E4B5A601D4806
S315080006B801F058FEFB6A002B05DBFB6A5B057B63CA
S315080006C81A4B3B630AE0FB6A23F00043FB62FB6AAA
S315080006D8DB0043F004037B63154B3B6300237B6114
S315080006E80023BB610123FB617B6B1B0C3B607B6BA7
S315080006F89BB27B603B6B1B0CBB603B6B9BB2FB6086
S3150800070800233B6101233B620E237B623B46194665
S31508000718044801F023FF034802F000F800BF383701
S31508000728BD4680BD60010020006400400400E0FF6B
S31508000738FCFF1F0080B500AF01220121024802F024
S3150800074857FE00BF80BD00BF0004024080B400AF5A
S3150800075800BFBD465DF8047B7047000080B400AF53
S31508000768034B044A9A6000BFBD465DF8047B704790
S3150800077800ED00E00000000880B58EB000AFFFF776
S31508000788EDFF01F0F7FA00F0ABF800F0CBFB00F04C
S3150800079875F900F06BFB00F015F900F095FB09F008
S315080007A845FC00F0A7F900F001FA00F05BFAFFF73C
S315080007B89DFE00233B6201237B620123BB62002363
S315080007C8FB6000233B6100237B610023BB61002398
S315080007D8FB610123FB6207F10C031946384801F04F
S315080007E8BDFE01233B620023FB6000237B6107F102
S315080007F80C031946324801F0B1FE314801F08EFF64
S3150800080802212F4802F0F0F8012201212D4802F0B2
S31508000818EFFD4FF4FA7001F01FFB00220121294869
S3150800082802F0E6FD284804F04FFD284804F04CFD80
S3150800083862B600BF264B1B881E2B02D1244B1E22EC
S315080008481A8009F0B7FD0346FB86FB8EB3F5A97F28
S31508000858F0D3012201211B4802F0CAFDFB8E082BA2
S3150800086838BF0823BB86BB8E19461A4809F06AFDA5
S315080008780346002B0CBF01230023DBB2002B16D03E
S31508000888154A3B4607CA03C31A7000BF3B460821E8
S31508000898184609F01FFD0346002B14BF0123002341
S315080008A8DBB2002BF2D10B490C4800F073FE09F0B5
S315080008B897FD00220121034802F09AFDBAE700BF16
S315080008C86003002000040240F801002040020020CE
S315080008D84806002088030020E8AC000888050020A0
S315080008E880B594B000AF07F12003302200211846DE
S315080008F80AF0BEF907F10C0300221A605A609A60DA
S31508000908DA601A610023BB602C4B1B6C2B4A43F038
S3150800091880531364294B1B6C03F08053BB60BB6878
S3150800092800237B60264B1B68254A43F480431360E3
S31508000938234B1B6803F480437B607B6801233B6277
S315080009484FF480337B620223BB634FF48003FB6357
S3150800095804233B6448237B640223BB640323FB64A8
S3150800096807F12003184603F0C7FF0346002B14BFF8
S3150800097801230023DBB2002B01D000F093FB0F23E1
S31508000988FB6002233B6100237B614FF48053BB6104
S315080009980023FB6107F10C030221184604F024FA28
S315080009A80346002B14BF01230023DBB2002B01D01A
S315080009B800F078FB00BF5037BD4680BD00380240BE
S315080009C80070004080B584B000AF3B4600221A602C
S315080009D85A609A60DA60264B264A1A60244B002227
S315080009E85A60234B00229A60214B00221A61204B39
S315080009F800221A761E4B002283F820201C4B002260
S31508000A08DA621B4B1C4A9A62194B0022DA60184BA9
S31508000A180122DA61164B002283F83020144B012292
S31508000A285A61134801F03CFA0346002B14BF012308
S31508000A380023DBB2002B01D000F034FB04233B6013
S31508000A4801237B600023BB603B461946084801F032
S31508000A586BFA0346002B14BF01230023DBB2002BD5
S31508000A6801D000F01FFB00BF1037BD4680BD00BF90
S31508000A7888010020002001400100000F80B500AF62
S31508000A881A4B1B4A1A60194B08225A60174B002240
S31508000A989A60164B0022DA60144B4FF440321A61FA
S31508000AA8124B4FF440125A61104B00221A760F4B1C
S31508000AB800225A760D4B00229A760C4B0022DA76DB
S31508000AC80A4B00221A77094B00225A77074801F081
S31508000AD849FC0346002B14BF01230023DBB2002B75
S31508000AE801D000F0DFFA00BF80BD00BFD0010020AA
S31508000AF80064004080B586B000AF07F108030022FD
S31508000B081A605A609A60DA603B4600221A605A6090
S31508000B18254B4FF080421A60234B48F69F425A608D
S31508000B28214B00229A60204B40F2CF72DA601E4BA6
S31508000B3800221A611C4B00229A611B4804F074FBB8
S31508000B480346002B14BF01230023DBB2002B01D078
S31508000B5800F0A8FA4FF48053BB6007F1080319465A
S31508000B68114804F0A9FF0346002B14BF01230023EC
S31508000B78DBB2002B01D000F095FA00233B60002376
S31508000B887B603B461946084805F0A2FB0346002B3E
S31508000B9814BF01230023DBB2002B01D000F082FA30
S31508000BA800BF1837BD4680BDF801002080B586B05D
S31508000BB800AF07F1080300221A605A609A60DA60E3
S31508000BC83B4600221A605A60244B254A1A60234B72
S31508000BD840F267125A60214B00229A601F4BC722BF
S31508000BE8DA601E4B00221A611C4B00229A611B48C8
S31508000BF804F01AFB0346002B14BF01230023DBB2BB
S31508000C08002B01D000F04EFA4FF48053BB6007F171
S31508000C1808031946114804F04FFF0346002B14BF72
S31508000C2801230023DBB2002B01D000F03BFA002396
S31508000C383B6000237B603B461946084805F048FB9D
S31508000C480346002B14BF01230023DBB2002B01D077
S31508000C5800F028FA00BF1837BD4680BD40020020BC
S31508000C680004004080B596B000AF07F1480300229B
S31508000C781A605A609A60DA6007F1400300221A601F
S31508000C885A6007F1240300221A605A609A60DA60EB
S31508000C981A615A619A613B1D20220021184609F0FB
S31508000CA8E7FF704B704A1A606E4B40F267125A603B
S31508000CB86C4B00229A606B4B40F28F12DA60694BD4
S31508000CC800221A61674B00225A61664B00229A6114
S31508000CD8644804F0A9FA0346002B14BF012300232D
S31508000CE8DBB2002B01D000F0DDF94FF48053BB646A
S31508000CF807F1480319465B4804F0DEFE0346002B55
S31508000D0814BF01230023DBB2002B01D000F0CAF977
S31508000D18544804F0A2FB0346002B14BF0123002302
S31508000D28DBB2002B01D000F0BDF94E4804F03CFBBD
S31508000D380346002B14BF01230023DBB2002B01D086
S31508000D4800F0B0F900233B6400237B6407F14003F5
S31508000D581946444805F0BCFA0346002B14BF01237C
S31508000D680023DBB2002B01D000F09CF960237B62DC
S31508000D780023BB620023FB6200233B6300237B63DB
S31508000D880023BB630023FB6307F1240300221946EB
S31508000D98344804F0CFFD0346002B14BF0123002373
S31508000DA8DBB2002B01D000F07DF907F124030422F9
S31508000DB819462C4804F0BEFD0346002B14BF012330
S31508000DC80023DBB2002B01D000F06CF900237B620C
S31508000DD807F1240308221946224804F04FFD034662
S31508000DE8002B14BF01230023DBB2002B01D000F02F
S31508000DF859F960237B6207F124030C22194619481E
S31508000E0804F098FD0346002B14BF01230023DBB228
S31508000E18002B01D000F046F900237B600023BB6055
S31508000E280023FB6000233B6100237B614FF40053DA
S31508000E38BB6100233B623B1D19460A4805F0C4FA04
S31508000E480346002B14BF01230023DBB2002B01D075
S31508000E5800F028F9034800F043FE00BF5837BD469E
S31508000E6880BD00BF880200200004014080B500AF9D
S31508000E78134B144A1A60124B4FF4E1325A60104B5E
S31508000E8800229A600E4B0022DA600D4B00221A6186
S31508000E980B4B0C225A610A4B00229A61084B002216
S31508000EA8DA61074805F0F6FA0346002B14BF012352
S31508000EB80023DBB2002B01D000F0F4F800BF80BD98
S31508000EC8D00200200010014080B500AF134B144A29
S31508000ED81A60124B4FF4E1325A60104B00229A609E
S31508000EE80E4B0022DA600D4B00221A610B4B0C22BE
S31508000EF85A610A4B00229A61084B0022DA610748B0
S31508000F0805F0C8FA0346002B14BF01230023DBB2F9
S31508000F18002B01D000F0C6F800BF80BD18030020DA
S31508000F280044004080B58AB000AF07F114030022D8
S31508000F381A605A609A60DA601A6100233B612E4B80
S31508000F481B6B2D4A43F0800313632B4B1B6B03F073
S31508000F5880033B613B690023FB60274B1B6B264AD2
S31508000F6843F001031363244B1B6B03F00103FB6077
S31508000F78FB680023BB60204B1B6B1F4A43F0040326
S31508000F8813631D4B1B6B03F00403BB60BB6800238C
S31508000F987B60194B1B6B184A43F002031363164B05
S31508000FA81B6B03F002037B607B6800224EF201018B
S31508000FB8124802F01DFA4EF201037B610123BB6158
S31508000FC80023FB6100233B6207F1140319460B480B
S31508000FD802F072F84FF480737B610023BB6100232B
S31508000FE8FB6107F114031946054802F065F800BFC6
S31508000FF82837BD4680BD00BF0038024000040240BD
S315080010080000024080B582B000AF78607B681B6834
S31508001018B3F1804F09D1154B1B8801339AB2134B8C
S315080010281A800121124802F0FCF97B681B68114AEC
S31508001038934216D1104B1B8801339AB20E4B1A806D
S315080010480E4B1B88042B06D90C4B00221A800C4819
S3150800105800F073F805E0094B1B8801339AB2074B71
S315080010681A8000BF0837BD4680BD00BF4806002065
S3150800107800040240000400404A0600204C060020EE
S315080010885006002080B58CB000AF786007F10C03D5
S3150800109807F114020021786801F084FB00BF303795
S315080010A8BD4680BD80B400AF72B600BF00BFFDE77D
S315080010B880B500AF144800F061FA144B0E221449A3
S315080010C8144800F08BF9114B0F221149124800F009
S315080010D885F90E4B06221149114800F07FF90B4B8A
S315080010E807220E490F4800F079F9084B08220B49E0
S315080010F80D4800F073F9054B092208490B4800F01A
S315080011086DF900BF80BD00BF880500208802002051
S315080011180004024050060020DC06002000080240B1
S3150800112868070020F4070020800800200C09002022
S3150800113880B500AFFFF7BCFF80BD80B582B000AFB1
S31508001148786000F07DFE02467B68B3F86230D31AF1
S315080011587A68B2F87820934206D97B6893F88A3079
S31508001168002B01D0012300E00023002B03D07B6865
S31508001178012283F82E2000F063FE02467B6893F866
S315080011888530D31A7A68B2F87A20934206D97B68EA
S3150800119893F88530002B01D0012300E00023002BAB
S315080011A803D07B68012283F82D207B6893F82A30C0
S315080011B8002B09D17B6893F82B30002B00F0878029
S315080011C8786800F08AF882E07B6893F88630002B06
S315080011D815D07B68B3F860207B68B3F87C309A42F0
S315080011E80DD27B6893F82A30002B08D07B6893F8D1
S315080011F82B30002B03D0786800F06FF86AE07B681C
S3150800120893F82C30002B16D17B6893F82B30002BDB
S3150800121811D07B6893F88A30002B08D07B6893F83E
S315080012282E30002B07D0786800F057F852E0786817
S3150800123800F053F84EE07B6893F82C30002B49D021
S315080012487B6893F82B30002B0DD07B6893F8853094
S31508001258002B3FD07B6893F82D30002B3AD078685E
S3150800126800F03BF836E07B6893F88830002B0CD002
S315080012787B68B3F86C300A2B07D07B68B3F86E30F6
S315080012881946786800F054F824E07B68B3F86C309F
S315080012980A2B18D17B6893F82C30012B06D17B686A
S315080012A8B3F874301946786800F042F87B6893F802
S315080012B82C30022B0DD17B68B3F87630194678683E
S315080012C800F036F805E0786800F01CF802E000BF80
S315080012D800E000BF0837BD4680BD80B582B000AFC4
S315080012E878607B68186B7B68B3F85C30002219460F
S315080012F802F07EF87B68002283F82B2000BF0837A7
S31508001308BD4680BD80B582B000AF78607B68186B33
S315080013187B68B3F85C300122194602F069F87B68E5
S31508001328012283F82B2000BF0837BD4680BD000080
S3150800133880B582B000AF786039607B681B8D063B44
S31508001348032B43D801A252F823F000BF65130008FF
S31508001358811300089D130008B91300081E4A3B6844
S3150800136853637B689B6E0021184604F0CFF87B68A8
S31508001378012283F82B202AE0174A3B6853637B68C7
S315080013889B6E0421184604F0C1F87B68012283F88D
S315080013982B201CE0104A3B6853637B689B6E082128
S315080013A8184604F0B3F87B68012283F82B200EE070
S315080013B8094A3B6853637B689B6E0C21184604F000
S315080013C8A5F87B68012283F82B2000E000BF00BF40
S315080013D80837BD4680BD00BF0004014080B485B00B
S315080013E800AFF860B9603B601346FB80FB680022D3
S315080013F883F82A20FB68002283F82B20FB68002242
S3150800140883F82C20FB68002283F82D20FB6800222D
S3150800141883F82E20FB68BA681A63FB68FA88A3F86B
S315080014285C20FB683A689A66FB6818461437BD4616
S315080014385DF8047B704780B485B000AF78600023F8
S31508001448FB7390E0FB7B7A685B01134400221A80E1
S31508001458FB7B7A685B011344023332221A80FB7BD2
S315080014687A685B011344043300221A80FB7B7A6886
S315080014785B011344063305221A80FB7B7A685B01F5
S315080014881344083314221A80FB7B7A685B011344D9
S315080014980A3332221A80FB7B7A685B0113440C33C1
S315080014A800221A80FB7B7A685B0113440E334FF4DB
S315080014B896721A80FB7B7A685B011344103340F2F4
S315080014C8E2421A80FB7B7A685B01134412334FF4B5
S315080014D8A0621A80FB7B7A685B0113441433C8221E
S315080014E81A80FB7B7A685B011344163364221A80D8
S315080014F8FB7B7A685B011344183300221A70FB7B5E
S315080015087A685B011344193300221A70FB7B7A68E0
S315080015185B0113441A3300221A70FB7B7A685B0155
S3150800152813441B3300221A70FB7B7A685B01134449
S315080015381C3300221A70FB7B7A685B0113441D333F
S3150800154800221A70FB7B7A685B0113441E3300225B
S315080015581A70FB7B7A685B0113441F3300221A70E2
S31508001568FB7B0133FB73FB7B052B7FF66BAF00BF59
S3150800157800BF1437BD465DF8047B704780B582B056
S3150800158800AF78607868FFF756FF7B681846083713
S31508001598BD4680BD80B491B000AF7860396000233D
S315080015A8FB8702E0FB8F0133FB87FB8F3A681344FE
S315080015B81B782A2BF6D1002387F83D300CE097F8DC
S315080015C83D305B0040333B44002223F8342C97F81F
S315080015D83D30013387F83D3097F83D30132BEED967
S315080015E8002387F83C30002387F83B3000233B87E5
S315080015F837E13B8F3A6813441B782A2B00F037816A
S315080016083B8F3A6813441B780A2B00F030813B8FCE
S315080016183A6813441B78242B15D13A8FFB8F023B63
S315080016289A4210DA3B8F01333B873B8F3A6813445B
S315080016381B78303B87F83C30002387F83B303B8FD4
S3150800164801333B870AE13B8F3A6813441B78202B02
S3150800165805D197F83B30013387F83B30FEE03B8FDE
S315080016683A6813441B782F2B21D93B8F3A681344C1
S315080016781B78392B1BD897F83B305B0040333B4423
S3150800168833F8343C1A46920013445B009BB23A8FEF
S3150800169839680A44127813449AB297F83B30303AB4
S315080016A892B25B0040333B4423F8342CD6E03B8F98
S315080016B83A6813441B783B2B40F0D08097F83C30A7
S315080016C8B9897A685B0113440A461A8097F83C3048
S315080016D8F9897A685B01134402330A461A8097F82F
S315080016E83C30398A7A685B01134404330A461A80FF
S315080016F897F83C30798A7A685B01134406330A46B8
S315080017081A8097F83C30B98A7A685B01134408331B
S315080017180A461A8097F83C30F98A7A685B011344B6
S315080017280A330A461A8097F83C30398B7A685B017F
S3150800173813440C330A461A8097F83C30798B7A6832
S315080017485B0113440E330A461A8097F83C30B98B66
S315080017587A685B01134410330A461A8097F83C30B6
S31508001768F98B7A685B01134412330A461A8097F88C
S315080017783C30398C7A685B01134414330A461A805C
S3150800178897F83C30798C7A685B01134416330A4615
S315080017981A80BA8C97F83C30D1B27A685B01134440
S315080017A818330A461A70FA8C97F83C30D1B27A6818
S315080017B85B01134419330A461A703A8D97F83C3078
S315080017C8D1B27A685B0113441A330A461A707A8DBD
S315080017D897F83C30D1B27A685B0113441B330A4642
S315080017E81A70BA8D97F83C30D1B27A685B011344FF
S315080017F81C330A461A70FA8D97F83C30D1B27A68C3
S315080018085B0113441D330A461A703A8E97F83C3022
S31508001818D1B27A685B0113441E330A461A707A8E67
S3150800182897F83C30D1B27A685B0113441F330A46ED
S315080018381A70002387F837300CE097F837305B00C2
S3150800184840333B44002223F8342C97F837300133C9
S3150800185887F8373097F83730132BEED93B8F013393
S315080018683B873A8FFB8F013B9A42FFF6C2AE0023AD
S3150800187818464437BD465DF8047B704780B483B084
S3150800188800AF00237B60104B5B6C0F4A43F4804320
S3150800189853640D4B5B6C03F480437B607B680023C1
S315080018A83B60094B1B6C084A43F080531364064B8C
S315080018B81B6C03F080533B603B6800BF0C37BD4682
S315080018C85DF8047B704700BF0038024080B58AB0CF
S315080018D800AF786007F1140300221A605A609A600C
S315080018E8DA601A617B681B68244A934241D100234F
S315080018F83B61234B5B6C224A43F480735364204B49
S315080019085B6C03F480733B613B690023FB601C4BEB
S315080019181B6B1B4A43F001031363194B1B6B03F03C
S315080019280103FB60FB680023BB60154B1B6B144A5D
S3150800193843F004031363124B1B6B03F00403BB60E9
S31508001948BB68F2237B610323BB610023FB6107F1B4
S31508001958140319460B4801F0AFFB30237B610323B8
S31508001968BB610023FB6107F114031946064801F019
S31508001978A3FB00BF2837BD4680BD00BF0020014035
S3150800198800380240000002400008024080B58AB0CC
S3150800199800AF786007F1140300221A605A609A604B
S315080019A8DA601A617B681B681D4A934234D10023A2
S315080019B83B611C4B1B6C1B4A43F000731364194BA1
S315080019C81B6C03F000733B613B690023FB60154BF6
S315080019D81B6B144A43F002031363124B1B6B03F089
S315080019E80203FB60FB684FF440737B610223BB610B
S315080019F80023FB6103233B6209237B6207F1140377
S31508001A081946094801F058FB00220021142001F064
S31508001A181CFB142001F035FB00BF2837BD4680BDE6
S31508001A2800640040003802400004024080B586B0D1
S31508001A3800AF78607B681B68B3F1804F16D1002326
S31508001A487B61244B1B6C234A43F001031364214B27
S31508001A581B6C03F001037B617B69002200211C20B3
S31508001A6801F0F3FA1C2001F00CFB2EE07B681B68DA
S31508001A78194A934216D100233B61164B1B6C154A2B
S31508001A8843F002031364134B1B6C03F002033B6118
S31508001A983B69002200211D2001F0D7FA1D2001F01C
S31508001AA8F0FA12E07B681B680C4A93420DD10023B2
S31508001AB8FB60084B5B6C074A43F002035364054B0B
S31508001AC85B6C03F00203FB60FB6800BF1837BD4672
S31508001AD880BD00BF003802400004004000040140F1
S31508001AE880B588B000AF786007F10C0300221A6049
S31508001AF85A609A60DA601A617B681B68124A9342D0
S31508001B081ED10023BB60114B1B6B104A43F004031C
S31508001B1813630E4B1B6B03F00403BB60BB684FF4DF
S31508001B287073FB6002233B6100237B610023BB6162
S31508001B380323FB6107F10C031946054801F0BCFAB3
S31508001B4800BF2037BD4680BD00040140003802406A
S31508001B580008024080B58CB000AF786007F11C0316
S31508001B6800221A605A609A60DA601A617B681B68F4
S31508001B78324A93422DD10023BB61314B5B6C304A04
S31508001B8843F0100353642E4B5B6C03F01003BB61E0
S31508001B98BB6900237B612A4B1B6B294A43F0010367
S31508001BA81363274B1B6B03F001037B617B694FF4B7
S31508001BB8C063FB6102233B6200237B620323BB628B
S31508001BC80723FB6207F11C0319461E4801F074FA3D
S31508001BD830E07B681B681C4A93422BD100233B6183
S31508001BE8174B1B6C164A43F400331364144B1B6CCF
S31508001BF803F400333B613B690023FB60104B1B6B06
S31508001C080F4A43F0010313630D4B1B6B03F00103E3
S31508001C18FB60FB680C23FB6102233B6200237B62A3
S31508001C280323BB620723FB6207F11C031946054811
S31508001C3801F042FA00BF3037BD4680BD00100140AA
S31508001C4800380240000002400044004080B400AF5B
S31508001C5800BFFDE780B400AF00BFFDE780B400AF62
S31508001C6800BFFDE780B400AF00BFFDE780B400AF52
S31508001C7800BFFDE780B400AF00BFBD465DF8047B32
S31508001C88704780B400AF00BFBD465DF8047B704757
S31508001C9880B400AF00BFBD465DF8047B704780B5C9
S31508001CA800AF00F0B9F800BF80BD000080B500AFEE
S31508001CB8024800F0BFFE00BF80BD00BFD00100206B
S31508001CC880B500AF024803F0E9FC00BF80BD00BF3D
S31508001CD8F801002080B500AF024803F0DFFC00BF1A
S31508001CE880BD00BF4002002080B500AF024801F061
S31508001CF8F6FC00BF80BD00BF8826002080B400AF70
S31508001D08064BD3F88830054A43F47003C2F888307E
S31508001D1800BFBD465DF8047B704700BF00ED00E0D4
S31508001D28DFF834D0FFF7EAFF0C480D490D4A0023BF
S31508001D3802E0D458C4500433C4188C42F9D30A4A6A
S31508001D480A4C002301E013600432A242FBD308F0D0
S31508001D5897FFFEF711FD70470000022000000020DB
S31508001D68FC0000208CAD0008FC0000208C2D00200B
S31508001D78FEE7000080B500AF0E4B1B680D4A43F41A
S31508001D88007313600B4B1B680A4A43F4806313609D
S31508001D98084B1B68074A43F480731360032001F055
S31508001DA849F90F2000F008F8FFF768FD00231846E0
S31508001DB880BD00BF003C024080B582B000AF7860A5
S31508001DC8124B1A68124B1B7819464FF47A73B3FBF1
S31508001DD8F1F3B2FBF3F3184601F061F90346002B59
S31508001DE801D001230EE07B680F2B0AD800227968F8
S31508001DF84FF0FF3001F029F9064A7B681360002383
S31508001E0800E0012318460837BD4680BD00000020BB
S31508001E18080000200400002080B400AF064B1B7899
S31508001E281A46064B1B681344044A136000BFBD468E
S31508001E385DF8047B704700BF080000209809002059
S31508001E4880B400AF034B1B681846BD465DF8047B93
S31508001E58704700BF9809002080B584B000AF786045
S31508001E68FFF7EEFFB8607B68FB60FB68B3F1FF3FDE
S31508001E7805D00A4B1B781A46FB681344FB6000BF5B
S31508001E88FFF7DEFF0246BB68D31AFA689A42F7D804
S31508001E9800BF00BF1037BD4680BD00BF0800002040
S31508001EA880B584B000AF78600023FB737B68002B8D
S31508001EB801D1012333E07B681B6C002B09D17868B4
S31508001EC8FFF704FD7B6800225A647B68002283F8C2
S31508001ED83C207B681B6C03F01003002B18D17B6829
S31508001EE81B6C23F4885323F0020343F002027B6831
S31508001EF81A64786800F03AF97B6800225A647B68A5
S31508001F081B6C23F0030343F001027B681A6401E0A3
S31508001F180123FB737B68002283F83C20FB7B184669
S31508001F281037BD4680BD000080B485B000AF786024
S31508001F3839600023BB607B6893F83C30012B01D1DC
S31508001F48022305E17B68012283F83C203B681B686D
S31508001F58092B25D97B681B68D9683B681B689BB21F
S31508001F681A4613465B0013441E3B072202FA03F37C
S31508001F78DA437B681B680A40DA607B681B68D9689D
S31508001F883B689A683B681B689BB2184603465B0021
S31508001F9803441E3B9A407B681B680A43DA6022E0C2
S31508001FA87B681B6819693B681B689BB21A46134607
S31508001FB85B001344072202FA03F3DA437B681B68BB
S31508001FC80A401A617B681B6819693B689A683B6806
S31508001FD81B689BB2184603465B0003449A407B6815
S31508001FE81B680A431A613B685B68062B24D87B681A
S31508001FF81B68596B3B685A6813469B001344053B94
S315080020081F2202FA03F3DA437B681B680A405A63FD
S315080020187B681B68596B3B681B689BB218463B680C
S315080020285A6813469B001344053B00FA03F27B687B
S315080020381B680A435A634CE03B685B680C2B24D838
S315080020487B681B68196B3B685A6813469B001344E0
S31508002058233B1F2202FA03F3DA437B681B680A400C
S315080020681A637B681B68196B3B681B689BB2184622
S315080020783B685A6813469B001344233B00FA03F24D
S315080020887B681B680A431A6323E07B681B68D96A5E
S315080020983B685A6813469B001344413B1F2202FAC1
S315080020A803F3DA437B681B680A40DA627B681B68B5
S315080020B8D96A3B681B689BB218463B685A68134638
S315080020C89B001344413B00FA03F27B681B680A43EA
S315080020D8DA62224BFB607B681B68214A934209D166
S315080020E83B681B68122B05D1FB685B6843F48002C2
S315080020F8FB685A607B681B68194A934223D13B6878
S315080021081B68102B03D03B681B68112B1BD1FB6877
S315080021185B6843F40002FB685A603B681B68102B2F
S3150800212811D1104B1B68104AA2FB03239A0C1346BD
S315080021389B0013445B00BB6002E0BB68013BBB60C5
S31508002148BB68002BF9D17B68002283F83C20002362
S3150800215818461437BD465DF8047B704700230140CE
S31508002168002001400000002083DE1B4380B485B0B0
S3150800217800AF7860794BFB60FB685B6823F44032F4
S31508002188FB685A60FB685A687B685B681A43FB6891
S315080021985A607B681B685A687B681B6822F48072D9
S315080021A85A607B681B6859687B681B691A027B68D2
S315080021B81B680A435A607B681B685A687B681B68F1
S315080021C822F040725A607B681B6859687B689A686F
S315080021D87B681B680A435A607B681B689A687B6831
S315080021E81B6822F400629A607B681B6899687B689A
S315080021F8DA687B681B680A439A607B689B6A584A50
S31508002208934222D07B681B689A687B681B6822F011
S3150800221870629A607B681B6899687B689A6A7B68AB
S315080022281B680A439A607B681B689A687B681B6800
S3150800223822F040529A607B681B6899687B68DA6A5C
S315080022487B681B680A439A600FE07B681B689A6874
S315080022587B681B6822F070629A607B681B689A68BC
S315080022687B681B6822F040529A607B681B689A68EC
S315080022787B681B6822F002029A607B681B6899686B
S315080022887B681B7E5A007B681B680A439A607B68D2
S3150800229893F82030002B1BD07B681B685A687B682C
S315080022A81B6842F400625A607B681B685A687B6838
S315080022B81B6822F460425A607B681B6859687B6809
S315080022C85B6A013B5A037B681B680A435A6007E046
S315080022D87B681B685A687B681B6822F400625A6028
S315080022E87B681B68DA6A7B681B6822F47002DA6204
S315080022F87B681B68D96A7B68DB69013B1A057B68BA
S315080023081B680A43DA627B681B689A687B681B68DD
S3150800231822F400729A607B681B6899687B6893F850
S3150800232830305A027B681B680A439A607B681B68C8
S315080023389A687B681B6822F480629A607B681B68C7
S3150800234899687B685B699A027B681B680A439A6086
S3150800235800BF1437BD465DF8047B7047002301406B
S315080023680100000F80B584B000AF78607B68002B49
S3150800237801D10123EDE07B6893F82030DBB2002B0E
S3150800238802D17868FFF702FB7B681B681A687B68C6
S315080023981B6842F001021A60FFF752FDF86012E066
S315080023A8FFF74EFD0246FB68D31A0A2B0BD97B6842
S315080023B85B6A43F400327B685A627B68052283F8B5
S315080023C820200123C5E07B681B685B6803F00103CE
S315080023D8002BE5D07B681B681A687B681B6822F0A7
S315080023E802021A60FFF72CFDF86012E0FFF728FDD5
S315080023F80246FB68D31A0A2B0BD97B685B6A43F437
S3150800240800327B685A627B68052283F820200123FC
S315080024189FE07B681B685B6803F00203002BE5D125
S315080024287B681B7E012B08D17B681B681A687B684A
S315080024381B6842F080021A6007E07B681B681A6806
S315080024487B681B6822F080021A607B685B7E012B1A
S3150800245808D17B681B681A687B681B6842F04002CB
S315080024681A6007E07B681B681A687B681B6822F095
S3150800247840021A607B689B7E012B08D17B681B6823
S315080024881A687B681B6842F020021A6007E07B68B6
S315080024981B681A687B681B6822F020021A607B682A
S315080024A8DB7E012B08D17B681B681A687B681B686A
S315080024B822F010021A6007E07B681B681A687B68B6
S315080024C81B6842F010021A607B681B7F012B08D133
S315080024D87B681B681A687B681B6842F008021A60E2
S315080024E807E07B681B681A687B681B6822F0080285
S315080024F81A607B685B7F012B08D17B681B681A68A2
S315080025087B681B6842F004021A6007E07B681B6850
S315080025181A687B681B6822F004021A607B689A6846
S315080025287B68DB681A437B681B691A437B685B69A7
S3150800253842EA03017B685B685A1E7B681B680A4384
S31508002548DA617B6800225A627B68012283F82020B8
S31508002558002318461037BD4680BD000080B487B0F2
S3150800256800AF786039607B681B687B617B6893F885
S315080025782030FB74FB7C012B03D0FB7C022B40F03C
S31508002588BE80654B7B617B69D3F8003243F0010254
S315080025987B69C3F800227B69D3F8003223F47C529E
S315080025A87B69C3F800227B69D3F800223B685B6A1B
S315080025B81B021A437B69C3F800223B685B6903F070
S315080025C81F03012202FA03F3FB607B69D3F81C2276
S315080025D8FB68DB431A407B69C3F81C223B68DB6946
S315080025E8002B23D17B69D3F80C22FB68DB431A40FE
S315080025F87B69C3F80C223B68DB6819043B685B688F
S315080026089BB23A68526919437B69483243F83210D3
S315080026183B689B6819043B681B689AB23B685B6908
S315080026280A4379694833DB000B445A603B68DB691F
S31508002638012B22D17B69D3F80C22FB681A437B69E4
S31508002648C3F80C223B681B6819043B685B689BB295
S315080026583A68526919437B69483243F832103B682D
S315080026689B6819043B68DB689AB23B685B690A434E
S3150800267879694833DB000B445A603B689B69002B31
S3150800268809D17B69D3F80422FB68DB431A407B69C6
S31508002698C3F8042207E07B69D3F80422FB681A43C7
S315080026A87B69C3F804223B681B69002B09D17B693F
S315080026B8D3F81422FB68DB431A407B69C3F8142253
S315080026C807E07B69D3F81422FB681A437B69C3F8C9
S315080026D814223B681B6A012B07D17B69D3F81C2295
S315080026E8FB681A437B69C3F81C227B69D3F8003256
S315080026F823F001027B69C3F80022002306E07B6801
S315080027085B6A43F480227B685A62012318461C37A1
S31508002718BD465DF8047B70470064004080B584B008
S3150800272800AF78607B6893F82030DBB2012B2ED196
S315080027387B68022283F820207B681B681A687B68F6
S315080027481B6822F001021A60FFF77AFBF86012E0AC
S31508002758FFF776FB0246FB68D31A0A2B0BD97B6868
S315080027685B6A43F400327B685A627B68052283F801
S315080027782020012312E07B681B685B6803F00103CD
S31508002788002BE5D17B6800225A62002306E07B68A5
S315080027985B6A43F400227B685A620123184610379D
S315080027A8BD4680BD80B487B000AFF860B9607A606E
S315080027B83B60FB6893F82030FB75FB7D012B03D043
S315080027C8FB7D022B40F00381BB68002B0ED1FB680A
S315080027D81B68DB6803F00303002B16D1FB685B6AEA
S315080027E843F40012FB685A620123F7E0FB681B688A
S315080027F81B6903F00303002B07D1FB685B6A43F4E4
S315080028080012FB685A620123E8E0FB681A68BB688D
S315080028181B331B0113441B6803F004027B689A6088
S315080028287B689B68002B0CD1FB681A68BB681B334E
S315080028381B0113441B685B0DC3F30A027B681A6005
S315080028480BE0FB681A68BB681B331B0113441B683B
S31508002858DB0823F060427B685A60FB681A68BB6825
S315080028681B331B0113441B6803F002027B68DA60FA
S31508002878FB681A68BB681B331B01134404331B68BF
S3150800288803F00803002B03D07B6808221A610BE0C3
S31508002898FB681A68BB681B331B01134404331B689F
S315080028A803F00F027B681A61FB681A68BB681B335A
S315080028B81B01134404331B681B0ADAB27B689A6146
S315080028C8FB681A68BB681B331B01134404331B686F
S315080028D81B0C9AB27B685A61FB681A68BB681B01AD
S315080028E8134403F5DC731B68DAB23B681A70FB6895
S315080028F81A68BB681B01134403F5DC731B681A0ABC
S315080029083B680133D2B21A70FB681A68BB681B01A8
S31508002918134403F5DC731B681A0C3B680233D2B2FE
S315080029281A70FB681A68BB681B01134403F5DC7345
S315080029381B681A0E3B680333D2B21A70FB681A680A
S31508002948BB681B01134403F5DE731A683B68043336
S31508002958D2B21A70FB681A68BB681B01134403F5E0
S31508002968DE731B681A0A3B680533D2B21A70FB680D
S315080029781A68BB681B01134403F5DE731B681A0C37
S315080029883B680633D2B21A70FB681A68BB681B0123
S31508002998134403F5DE731B681A0E3B680733D2B275
S315080029A81A70BB68002B08D1FB681B68DA68FB68D5
S315080029B81B6842F02002DA6007E0FB681B681A69A0
S315080029C8FB681B6842F020021A61002306E0FB68D0
S315080029D85B6A43F48022FB685A62012318461C374F
S315080029E8BD465DF8047B704780B485B000AF786053
S315080029F839607B6893F82030FB73FB7B012B02D088
S31508002A08FB7B022B09D17B681B6859697B681B68A5
S31508002A183A680A435A61002306E07B685B6A43F40E
S31508002A2880227B685A62012318461437BD465DF82A
S31508002A38047B704780B58AB000AF786000237B6254
S31508002A487B681B685B693B627B681B685B68FB6124
S31508002A587B681B689B68BB617B681B68DB687B6156
S31508002A687B681B681B693B617B681B689B69FB6005
S31508002A783B6A03F00103002B7CD0BB6903F0010312
S31508002A88002B23D07B681B6801229A60BB6903F078
S31508002A980203002B03D0786800F083F916E0BB69B7
S31508002AA803F00403002B04D07B6A43F400637B62BB
S31508002AB80CE0BB6903F00803002B04D07B6A43F4D7
S31508002AC880537B6202E0786800F089F9BB6903F4F1
S31508002AD88073002B24D07B681B684FF480729A6039
S31508002AE8BB6903F40073002B03D0786800F063F918
S31508002AF816E0BB6903F48063002B04D07B6A43F4B1
S31508002B0800537B620CE0BB6903F40063002B04D016
S31508002B187B6A43F480437B6202E0786800F069F9CF
S31508002B28BB6903F48033002B24D07B681B684FF4F9
S31508002B3880329A60BB6903F40033002B03D07868A7
S31508002B4800F043F916E0BB6903F48023002B04D090
S31508002B587B6A43F400437B620CE0BB6903F40023F9
S31508002B68002B04D07B6A43F480337B6202E07868E2
S31508002B7800F049F93B6A03F00803002B0CD07B697F
S31508002B8803F01003002B07D07B6A43F400737B62BB
S31508002B987B681B681022DA603B6A03F00403002B83
S31508002BA80BD07B6903F00803002B06D07B681B68EB
S31508002BB80822DA60786800F030F93B6A03F0020305
S31508002BC8002B09D07B681B68DB6803F00303002B1E
S31508002BD802D07868FEF756FA3B6A03F04003002BE2
S31508002BE80CD03B6903F01003002B07D07B6A43F42B
S31508002BF880637B627B681B6810221A613B6A03F054
S31508002C082003002B0BD03B6903F00803002B06D0E2
S31508002C187B681B6808221A61786800F012F93B6A13
S31508002C2803F01003002B09D07B681B681B6903F0A7
S31508002C380303002B02D0786800F0F9F83B6A03F41E
S31508002C480033002B0BD0FB6903F01003002B06D0CA
S31508002C587B681B6810225A60786800F0FCF83B6AA3
S31508002C6803F48033002B0BD0FB6903F00803002B11
S31508002C7806D07B681B6808225A60786800F0F5F861
S31508002C883B6A03F40043002B7BD0FB6903F004037B
S31508002C98002B72D03B6A03F48073002B08D0FB68BC
S31508002CA803F00103002B03D07B6A43F001037B6220
S31508002CB83B6A03F40073002B08D0FB6803F0020391
S31508002CC8002B03D07B6A43F002037B623B6A03F45A
S31508002CD88063002B08D0FB6803F00403002B03D09D
S31508002CE87B6A43F004037B623B6A03F40063002BA8
S31508002CF843D0FB6803F07003002B3ED0FB6803F053
S31508002D087003602B2BD0602B2ED8502B22D0502B3B
S31508002D182AD8402B19D0402B26D8302B10D0302B48
S31508002D2822D8102B02D0202B05D01DE07B6A43F051
S31508002D3808037B6219E07B6A43F010037B6214E0A0
S31508002D487B6A43F020037B620FE07B6A43F040030B
S31508002D587B620AE07B6A43F080037B6205E07B6A54
S31508002D6843F480737B6200E000BF7B681B689A693E
S31508002D787B681B6822F070029A617B681B680422CC
S31508002D885A607B6A002B08D07B685A6A7B6A1A43A2
S31508002D987B685A62786800F072F800BF2837BD4623
S31508002DA880BD80B483B000AF786000BF0C37BD46DD
S31508002DB85DF8047B704780B483B000AF786000BFC5
S31508002DC80C37BD465DF8047B704780B483B000AF06
S31508002DD8786000BF0C37BD465DF8047B704780B441
S31508002DE883B000AF786000BF0C37BD465DF8047B3A
S31508002DF8704780B483B000AF786000BF0C37BD4613
S31508002E085DF8047B704780B483B000AF786000BF74
S31508002E180C37BD465DF8047B704780B483B000AFB5
S31508002E28786000BF0C37BD465DF8047B704780B4F0
S31508002E3883B000AF786000BF0C37BD465DF8047BE9
S31508002E48704780B483B000AF786000BF0C37BD46C2
S31508002E585DF8047B704780B483B000AF786000BF24
S31508002E680C37BD465DF8047B704780B483B000AF65
S31508002E78786000BF0C37BD465DF8047B704780B4A0
S31508002E8883B000AF786000BF0C37BD465DF8047B99
S31508002E987047000080B485B000AF78607B6803F09F
S31508002EA80703FB600C4BDB68BB60BA684FF6FF0389
S31508002EB81340BB60FB681A02BB68134343F0BF6341
S31508002EC843F40033BB60044ABB68D36000BF1437B9
S31508002ED8BD465DF8047B704700ED00E080B400AF9E
S31508002EE8044BDB681B0A03F007031846BD465DF862
S31508002EF8047B704700ED00E080B483B000AF03465A
S31508002F08FB7197F90730002B0BDBFB7903F01F02DF
S31508002F18074997F907305B09012000FA02F241F8D8
S31508002F28232000BF0C37BD465DF8047B704700BFF9
S31508002F3800E100E080B483B000AF03463960FB7156
S31508002F4897F90730002B0ADB3B68DAB20C4997F980
S31508002F5807301201D2B20B4483F800230AE03B6813
S31508002F68DAB20849FB7903F00F03043B1201D2B21F
S31508002F780B441A7600BF0C37BD465DF8047B7047CC
S31508002F8800E100E000ED00E080B489B000AFF86029
S31508002F98B9607A60FB6803F00703FB61FB69C3F154
S31508002FA80703042B28BF0423BB61FB690433062BDC
S31508002FB802D9FB69033B00E000237B614FF0FF322F
S31508002FC8BB6902FA03F3DA43BB681A407B699A407D
S31508002FD84FF0FF317B6901FA03F3D9437B680B404D
S31508002FE8134318462437BD465DF8047B704700002E
S31508002FF880B582B000AF78607B68013BB3F1807F0B
S3150800300801D301230FE00A4A7B68013B53600F216D
S315080030184FF0FF30FFF78EFF054B00229A60044BEE
S3150800302807221A60002318460837BD4680BD00BF28
S3150800303810E000E080B582B000AF78607868FFF7E6
S3150800304829FF00BF0837BD4680BD80B586B000AFEA
S315080030580346B9607A60FB7300237B61FFF73EFF7E
S3150800306878617A68B9687869FFF78EFF024697F932
S315080030780F3011461846FFF75DFF00BF1837BD46E3
S3150800308880BD80B582B000AF0346FB7197F907305B
S315080030981846FFF731FF00BF0837BD4680BD80B523
S315080030A882B000AF78607868FFF7A2FF0346184633
S315080030B80837BD4680BD000080B489B000AF786087
S315080030C8396000237B6100233B610023BB61002331
S315080030D8FB616BE10122FB6902FA03F37B613B683A
S315080030E81B687A6913403B613A697B699A4240F0E2
S315080030F85A813B685B6803F00303012B05D03B68DC
S315080031085B6803F00303022B30D17B689B68BB61BD
S31508003118FB695B00032202FA03F3DB43BA6913402F
S31508003128BB613B68DA68FB695B0002FA03F3BA69B4
S315080031381343BB617B68BA699A607B685B68BB6145
S315080031480122FB6902FA03F3DB43BA691340BB6140
S315080031583B685B681B0903F00102FB6902FA03F383
S31508003168BA691343BB617B68BA695A603B685B688E
S3150800317803F00303032B17D07B68DB68BB61FB6985
S315080031885B00032202FA03F3DB43BA691340BB6107
S315080031983B689A68FB695B0002FA03F3BA6913434A
S315080031A8BB617B68BA69DA603B685B6803F003034E
S315080031B8022B23D1FB69DA087B68083253F82230D8
S315080031C8BB61FB6903F007039B000F2202FA03F3AE
S315080031D8DB43BA691340BB613B681A69FB6903F0AC
S315080031E807039B0002FA03F3BA691343BB61FB6939
S315080031F8DA087B680832B96943F822107B681B68C5
S31508003208BB61FB695B00032202FA03F3DB43BA6975
S315080032181340BB613B685B6803F00302FB695B000C
S3150800322802FA03F3BA691343BB617B68BA691A6081
S315080032383B685B6803F44033002B00F0B480002336
S31508003248FB60604B5B6C5F4A43F4804353645D4B99
S315080032585B6C03F48043FB60FB685B4AFB699B086D
S31508003268023352F82330BB61FB6903F003039B0062
S315080032780F2202FA03F3DB43BA691340BB617B6882
S31508003288524A93422BD07B68514A934225D07B6891
S31508003298504A93421FD07B684F4A934219D07B689D
S315080032A84E4A934213D07B684D4A93420DD07B68A9
S315080032B84C4A934207D07B684B4A934201D107236D
S315080032C80EE008230CE006230AE0052308E0042399
S315080032D806E0032304E0022302E0012300E00023BA
S315080032E8FA6902F0030292009340BA691343BB6174
S315080032F83549FB699B080233BA6941F823203B4BD9
S315080033089B68BB613B69DB43BA691340BB613B6891
S315080033185B6803F48013002B03D0BA693B6913432F
S31508003328BB61324ABB699360304BDB68BB613B695A
S31508003338DB43BA691340BB613B685B6803F4001357
S31508003348002B03D0BA693B691343BB61274ABB699B
S31508003358D360264B5B68BB613B69DB43BA6913409C
S31508003368BB613B685B6803F40033002B03D0BA697A
S315080033783B691343BB611D4ABB6953601B4B1B68FA
S31508003388BB613B69DB43BA691340BB613B685B6851
S3150800339803F48033002B03D0BA693B691343BB6136
S315080033A8124ABB691360FB690133FB61FB690F2B82
S315080033B87FF690AE00BF00BF2437BD465DF8047B94
S315080033C8704700BF0038024000380140000002403C
S315080033D80004024000080240000C024000100240A7
S315080033E80014024000180240001C0240003C01403C
S315080033F880B483B000AF78600B467B8013467B7039
S315080034087B78002B03D07A887B689A6103E07B88EF
S315080034181A047B689A6100BF0C37BD465DF8047BC1
S31508003428704780B485B000AF78600B467B807B68B0
S315080034385B69FB607A88FB6813401A04FB68D94302
S315080034487B880B401A437B689A6100BF1437BD46D0
S315080034585DF8047B704780B586B002AF78607B68F4
S31508003468002B01D1012301E17B681B68BB607B68DF
S3150800347893F89534DBB2002B06D17B68002283F8D3
S315080034889424786807F0E0F87B68032283F8952483
S31508003498BB68B3F1A04F02D17B6800229A717B689A
S315080034A81B68184603F0D1FB7B6818687B681A7C8A
S315080034B88DF8002004330ECB03F0B0FA0346002B30
S315080034C805D07B68022283F895240123CEE07B6821
S315080034D81B680021184603F0C9FB0346002B05D0D4
S315080034E87B68022283F895240123BFE00023FB7337
S315080034F84AE0FA7B79681346DB0013449B000B44C1
S31508003508153301221A70FA7B79681346DB001344CF
S315080035189B000B441433FA7B1A70FA7BFB7B98B230
S3150800352879681346DB0013449B000B442E33024686
S315080035381A80FA7B79681346DB0013449B000B4410
S31508003548183300221A70FA7B79681346DB0013448D
S315080035589B000B441C3300221A60FA7B79681346D1
S31508003568DB0013449B000B44203300221A60FA7BC5
S3150800357879681346DB0013449B000B442433002266
S315080035881A60FB7B0133FB737B681B79FA7B9A42CB
S31508003598AFD30023FB7344E0FA7B79681346DB0054
S315080035A813449B000B4403F2552300221A70FA7B36
S315080035B879681346DB0013449B000B4403F515731F
S315080035C8FA7B1A70FA7B79681346DB0013449B006A
S315080035D80B4403F5167300221A70FA7B79681346AA
S315080035E8DB0013449B000B4403F5177300221A608B
S315080035F8FA7B79681346DB0013449B000B4403F5F2
S31508003608187300221A60FA7B79681346DB0013449C
S315080036189B000B4403F5197300221A60FB7B0133E0
S31508003628FB737B681B79FA7B9A42B5D37B68186863
S315080036387B681A7C8DF8002004330ECB03F062FBF6
S315080036480346002B05D07B68022283F895240123BC
S315080036580CE07B6800225A747B68012283F895245B
S315080036687B681B68184604F0A6FB00231846103723
S31508003678BD4680BD80B584B000AF78607B681B689E
S31508003688FB607B6893F89434012B01D1022322E06E
S315080036987B68012283F89424FB68DB6803F04003FF
S315080036A8002B09D07B685B7B012B05D1FB689B6BDC
S315080036B843F48032FB689A637B681B68184603F0F4
S315080036C8B3FA7B681B68184604F054FB7B6800222B
S315080036D883F89424002318461037BD4680BD90B554
S315080036E88DB000AF78607B681B683B623B6AFB61FC
S315080036F87B681B68184604F012FC0346002B40F04A
S315080037088C847B681B68184604F076FB0346002BF6
S3150800371800F08284FB6903F500639B681B0AC3F300
S315080037280D027B68C3F8D4247B681B68184604F026
S3150800373863FB034603F00203022B07D17B681B6869
S315080037485A697B681B6802F002025A617B681B6823
S31508003758184604F051FB034603F01003102B61D1F9
S315080037687B681B689A697B681B6822F010029A6155
S315080037783B6A1B6ABB61BB6903F00F021346DB0091
S3150800378813449B0003F514737A68134404337B6166
S31508003798BB6903F4F013B3F5802F24D1BA6947F649
S315080037A8F0731340002B35D07B69D968BB691B09B0
S315080037B89BB2C3F30A039BB21A46386A04F088F91F
S315080037C87B69DA68BB691B09C3F30A031A447B6970
S315080037D8DA607B695A69BB691B09C3F30A031A4489
S315080037E87B695A6116E0BB6903F4F013B3F5402FF9
S315080037F810D17B6803F29C4308221946386A04F0FC
S3150800380867F97B695A69BB691B09C3F30A031A4432
S315080038187B695A617B681B689A697B681B6842F0F2
S3150800382810029A617B681B68184604F0E5FA034695
S3150800383803F40023B3F5002F40F0A78000237B622A
S315080038487B681B68184604F0EAFAB86299E0BB6A0E
S3150800385803F00103002B00F08E807B681B687A6AE8
S31508003868D2B21146184604F00EFB38613B6903F0DC
S315080038780103002B0CD07B6A5A01FB69134403F534
S3150800388830631A4601239360796A786800F0A2FEC5
S315080038983B6903F00803002B0CD07B6A5A01FB69C5
S315080038A8134403F530631A4608239360796A7868DF
S315080038B800F078FF3B6903F01003002B08D07B6AF9
S315080038C85A01FB69134403F530631A4610239360BB
S315080038D83B6903F00203002B30D03B6A5B6903F0AF
S315080038E88003802B09D1FB6903F500635B68FA69D5
S315080038F802F5006243F4806353607A6A1346DB0074
S3150800390813449B0003F514737A68134404337B61E4
S315080039187B69DB78012B08D17B690022DA707B6A20
S31508003928DBB21946786806F095FF7B6A5A01FB6987
S31508003938134403F530631A46022393603B6903F080
S315080039482003002B08D07B6A5A01FB69134403F548
S3150800395830631A46202393603B6903F40053002B0F
S3150800396809D07B6A5A01FB69134403F530631A4682
S315080039784FF4005393607B6A01337B62BB6A5B082A
S31508003988BB62BB6A002B7FF462AF7B681B6818466C
S3150800399804F032FA034603F48023B3F5802F40F087
S315080039A8DB807B681B68184604F053FAB862002364
S315080039B87B62CDE0BB6A03F00103002B00F0C280EE
S315080039C87B681B687A6AD2B21146184604F079FAF7
S315080039D838613B6903F00103002B57D07B6A03F073
S315080039E80F03012202FA03F3FB60FB6903F5006380
S315080039F85A6BFB68DB43F96901F5006113404B63B1
S31508003A087B6A5A01FB69134403F510631A460123B6
S31508003A1893607B689B79012B32D179687A6A134659
S31508003A28DB0013449B000B442033196878687A6ACC
S31508003A381346DB0013449B0003441C331B681944D4
S31508003A4878687A6A1346DB0013449B0003442033DC
S31508003A5819607B6A002B13D179687A6A1346DB00EA
S31508003A6813449B000B4424331B68002B08D17B683E
S31508003A7818687B6803F29C431A46012104F080FA09
S31508003A887B6ADBB21946786806F05FFE3B6903F085
S31508003A980803002B08D07B6A5A01FB69134403F50F
S31508003AA810631A46082393603B6903F01003002B3A
S31508003AB808D07B6A5A01FB69134403F510631A4652
S31508003AC8102393603B6903F04003002B08D07B6AF8
S31508003AD85A01FB69134403F510631A464023936099
S31508003AE83B6903F00203002B23D0796A386A03F08E
S31508003AF86DFA7A6A1346DB0013449B0010337A681A
S31508003B08134404337B617B69DB78012B08D17B6915
S31508003B180022DA707B6ADBB21946786806F0ACFED2
S31508003B287B6A5A01FB69134403F510631A46022394
S31508003B3893603B6903F08003002B03D0796A7868A1
S31508003B4800F0BBFC7B6A01337B62BB6A5B08BB621D
S31508003B58BB6A002B7FF42EAF7B681B68184604F0F7
S31508003B684BF9034603F00043B3F1004F22D1FB6932
S31508003B7803F500635B68FA6902F5006223F001033E
S31508003B8853607B6893F8CC34012B08D17B680022F4
S31508003B9883F8CC240021786800F0A2FE02E0786851
S31508003BA806F04AFE7B681B685A697B681B6802F040
S31508003BB800425A617B681B68184604F01DF90346DB
S31508003BC803F40063B3F5006F12D1FB6903F50063CC
S31508003BD89B6803F00103012B02D1786806F006FEFC
S31508003BE87B681B685A697B681B6802F400625A611D
S31508003BF87B681B68184604F0FFF8034603F48053ED
S31508003C08B3F5805F40F0B780FB6903F500635B682E
S31508003C18FA6902F5006223F0010353607B681B68A2
S31508003C281021184603F0D2F90023FB6246E0FB6A26
S31508003C385A01FB69134403F510631A464FF67F3396
S31508003C489360FB6A5A01FB69134403F510631B6802
S31508003C58FA6A5101FA690A4402F5106223F4001354
S31508003C681360FB6A5A01FB69134403F530631A4665
S31508003C784FF67F339360FB6A5A01FB69134403F5D1
S31508003C8830631B68FA6A5101FA690A4402F5306218
S31508003C9823F400131360FB6A5A01FB69134403F5FE
S31508003CA830631B68FA6A5101FA690A4402F53062F8
S31508003CB843F000631360FB6A0133FB627B681B7978
S31508003CC81A46FB6A9342B2D3FB6903F50063DB69BC
S31508003CD8FA6902F5006243F00113D3617B68DB7B5E
S31508003CE8002B16D0FB6903F50063D3F88430FA690C
S31508003CF802F5006243F00B03C2F88430FB6903F54A
S31508003D0800635B6CFA6902F5006243F00B035364BF
S31508003D1815E0FB6903F500635B69FA6902F5006259
S31508003D2843F4005343F02B035361FB6903F500631F
S31508003D381B69FA6902F5006243F00B031361FB6914
S31508003D4803F500631B68FA6902F5006223F4FE634B
S31508003D5813607B6818687B6899797B6803F29C43CB
S31508003D681A4604F00DF97B681B685A697B681B6854
S31508003D7802F480525A617B681B68184604F03CF8BE
S31508003D88034603F40053B3F5005F23D17B681B6829
S31508003D98184604F0D2F87B681B68184603F08FF9B2
S31508003DA803461A467B68DA717B681C6801F008FACC
S31508003DB801467B68DB791A46204602F093FE786846
S31508003DC806F0EBFC7B681B685A697B681B6802F47B
S31508003DD800525A617B681B68184604F00DF80346BA
S31508003DE803F00803082B0AD1786806F0C8FC7B6834
S31508003DF81B685A697B681B6802F008025A617B6867
S31508003E081B68184603F0F8FF034603F08003802B67
S31508003E1823D13B6A9B6923F080023B6A9A61012396
S31508003E287B6214E079687A6A1346DB0013449B00C0
S31508003E380B4403F257231B78012B05D17B6ADBB2A7
S31508003E481946786800F008FB7B6A01337B627B6851
S31508003E581B791A467B6A9342E4D37B681B68184623
S31508003E6803F0CAFF034603F48013B3F5801F3CD159
S31508003E7801237B622BE07B6A5A01FB69134403F52D
S31508003E8810631B68BB6179687A6A1346DB001344BA
S31508003E989B000B4418331B78012B15D1BB69002BE3
S31508003EA812DA79687A6A1346DB0013449B000B44D6
S31508003EB8173301221A707B6ADBB263F07F03DBB221
S31508003EC81946786800F0C8FA7B6A01337B627B6812
S31508003ED81B791A467B6A9342CDD37B681B685A6955
S31508003EE87B681B6802F480125A617B681B6818464F
S31508003EF803F082FF034603F40013B3F5001F56D1F7
S31508003F0801237B6245E07B6A5A01FB69134403F582
S31508003F1830631B68BB6179687A6A1346DB00134409
S31508003F289B000B4403F516731B78012B2ED1BB692E
S31508003F38002B2BDABB6903F480327B68D3F8D434B8
S31508003F4803F001039A4221D179687A6A1346DB009D
S31508003F5813449B000B4403F2572301221A703B6A49
S31508003F689B6943F080023B6A9A613B6A5B6903F086
S31508003F788003002B0AD1FB6903F500635B68FA69BD
S31508003F8802F5006243F40073536008E07B6A013364
S31508003F987B627B681B791A467B6A9342B3D37B6834
S31508003FA81B685A697B681B6802F400125A617B68A9
S31508003FB81B68184603F020FF034603F08043B3F155
S31508003FC8804F0AD1786806F069FC7B681B685A69CD
S31508003FD87B681B6802F080425A617B681B68184632
S31508003FE803F00AFF034603F00403042B15D17B6884
S31508003FF81B685B68BB61BB6903F00403002B02D02E
S31508004008786806F059FC7B681B6859687B681B68E2
S31508004018BA690A435A6000E000BF3437BD4690BD06
S3150800402880B582B000AF78600B46FB707B6893F862
S315080040389434012B01D1022312E07B68012283F80C
S3150800404894247B68FA785A747B681B68FA78114650
S31508004058184603F069FE7B68002283F89424002337
S3150800406818460837BD4680BD80B584B000AF78606D
S31508004078084611461A460346FB700B463B8013460C
S31508004088BB700023FB7297F90330002B0FDAFB7815
S3150800409803F00F021346DB0013449B0010337A68BB
S315080040A813440433FB60FB6801225A700FE0FB785F
S315080040B803F00F021346DB0013449B0003F5147341
S315080040C87A6813440433FB60FB6800225A70FB784D
S315080040D803F00F03DAB2FB681A703A88FB689A602D
S315080040E8FB68BA781A71FB685B78002B04D0FB6802
S315080040F81B781A46FB685A83BB78022B02D1FB68E1
S3150800410800225A717B6893F89434012B01D1022353
S315080041180EE07B68012283F894247B681B68F9689B
S31508004128184602F0F1FF7B68002283F89424FB7A8C
S3150800413818461037BD4680BD80B584B000AF786094
S315080041480B46FB7097F90330002B0FDAFB7803F060
S315080041580F021346DB0013449B0010337A68134496
S315080041680433FB60FB6801225A700FE0FB7803F002
S315080041780F021346DB0013449B0003F514737A6891
S3150800418813440433FB60FB6800225A70FB7803F07B
S315080041980F03DAB2FB681A707B6893F89434012B1C
S315080041A801D102230EE07B68012283F894247B68F8
S315080041B81B68F968184603F02FF87B68002283F80D
S315080041C89424002318461037BD4680BD80B586B0AE
S315080041D800AFF8607A603B600B46FB72FB7A03F027
S315080041E80F021346DB0013449B0003F51473FA68A1
S315080041F8134404337B617B697A68DA607B693A68B9
S315080042081A617B6900225A617B6900225A70FB7A17
S3150800421803F00F03DAB27B691A70FB689B79012BE6
S3150800422802D17A687B69DA61FB681868FB689B794A
S315080042381A46796903F0CCF8002318461837BD469C
S3150800424880BD80B483B000AF78600B46FB70FB78FE
S3150800425803F00F0279681346DB0013449B000B44EE
S3150800426803F51A731B6818460C37BD465DF8047BB8
S31508004278704780B586B000AFF8607A603B600B4639
S31508004288FB72FB7A03F00F021346DB0013449B000C
S315080042981033FA68134404337B617B697A68DA60F9
S315080042A87B693A681A617B6900225A617B6901222F
S315080042B85A70FB7A03F00F03DAB27B691A70FB6847
S315080042C89B79012B02D17A687B69DA61FB681868E1
S315080042D8FB689B791A46796903F07AF80023184629
S315080042E81837BD4680BD80B584B000AF78600B46E8
S315080042F8FB70FB7803F00F037A681279934201D9A9
S3150800430801234FE097F90330002B0FDAFB7803F007
S315080043180F021346DB0013449B0010337A681344D4
S315080043280433FB60FB6801225A700DE0FA781346DD
S31508004338DB0013449B0003F514737A6813440433AB
S31508004348FB60FB6800225A70FB6801229A70FB78AA
S3150800435803F00F03DAB2FB681A707B6893F8943493
S31508004368012B01D102231DE07B68012283F89424DE
S315080043787B681B68F968184603F002FCFB7803F0AB
S315080043880F03002B09D17B6818687B6899797B68C5
S3150800439803F29C431A4603F0F3FD7B68002283F870
S315080043A89424002318461037BD4680BD80B584B0CE
S315080043B800AF78600B46FB70FB7803F00F037A684A
S315080043C81279934201D9012342E097F90330002B69
S315080043D80FDAFB7803F00F021346DB0013449B0041
S315080043E810337A6813440433FB60FB6801225A7059
S315080043F80FE0FB7803F00F021346DB0013449B001B
S3150800440803F514737A6813440433FB60FB680022C7
S315080044185A70FB6800229A70FB7803F00F03DAB229
S31508004428FB681A707B6893F89434012B01D1022330
S315080044380EE07B68012283F894247B681B68F96878
S31508004448184603F00BFC7B68002283F894240023A3
S3150800445818461037BD4680BD80B584B000AF786071
S315080044680B46FB7097F90330002B0CDAFB7803F040
S315080044780F021346DB0013449B0010337A68134473
S315080044880433FB600CE0FB7803F00F021346DB00ED
S3150800449813449B0003F514737A6813440433FB60CA
S315080044A87B681B68F968184603F02AFA0346FB7204
S315080044B8FB7A18461037BD4680BD80B58AB002AF6C
S315080044C8786039607B681B687B617B693B613A6801
S315080044D81346DB0013449B0010337A6813440433ED
S315080044E8FB60FB685A69FB681B699A4201D9012374
S315080044F86BE0FB681A69FB685B69D31AFB61FB68A2
S315080045089B68FA699A4202D9FB689B68FB61FB6952
S3150800451803339B08BB612AE0FB681A69FB685B6979
S31508004528D31AFB61FB689B68FA699A4202D9FB6849
S315080045389B68FB61FB6903339B08BB61FB68D96809
S315080045483B68DAB2FB6998B27B689B7900930346A5
S31508004558786903F07FFAFB68DA68FB691A44FB682E
S31508004568DA60FB685A69FB691A44FB685A613B6852
S315080045785A013B69134403F510639B699BB2BA69F0
S315080045889A4209D8FB685A69FB681B699A4203D29A
S31508004598FB681B69002BBFD1FB681A69FB685B6956
S315080045A89A4211D83B6803F00F03012202FA03F373
S315080045B8BB603B6903F500635A6BBB68DB43396923
S315080045C801F5006113404B63002318462037BD46A2
S315080045D880BD000080B588B000AF786039607B6818
S315080045E81B68FB61FB69BB61FB693C3304331B68C9
S315080045F87B613B685A01BB69134403F530639B68C2
S315080046083B617B689B79012B7BD13B6903F00803E7
S31508004618002B15D07B69614A934240F2B9803B6901
S3150800462803F40043002B00F0B3803B685A01BB69CA
S31508004638134403F530631A464FF400439360A7E022
S315080046483B6903F02003002B09D03B685A01BB6974
S31508004658134403F530631A462023936098E03B69B0
S3150800466803F02803002B40F093807B694B4A93425A
S315080046780FD93B6903F40043002B0AD03B685A015B
S31508004688BB69134403F530631A464FF40043936035
S315080046987EE03A681346DB0013449B0003F514735F
S315080046A87A6813440433FB60FB681A6A3B68590145
S315080046B8BB690B4403F530631B69C3F31203D21AAB
S315080046C8FB685A613B68002B14D1FB681B69002BF1
S315080046D809D17B6818687B6803F29C431A4601214E
S315080046E803F04EFC06E0FB68DA68FB685B691A4467
S315080046F8FB68DA603B68DBB21946786806F00AF8A0
S3150800470846E07B69264A934224D13B6903F4004371
S31508004718002B0AD03B685A01BB69134403F530637A
S315080047281A464FF40043936032E03B6903F02003CE
S31508004738002B08D03B685A01BB69134403F530635C
S315080047481A46202393603B68DBB21946786805F059
S31508004758E1FF1DE03B68002B14D179683A681346D7
S31508004768DB0013449B000B4403F519731B68002BE5
S3150800477808D17B6818687B6803F29C431A460021AF
S3150800478803F0FEFB3B68DBB21946786805F0C2FF02
S31508004798002318462037BD4680BD00BF0A30544F4F
S315080047A80A31544F80B586B000AF786039607B68A7
S315080047B81B687B617B693B617B693C3304331B68F7
S315080047C8FB603B685A013B69134403F530639B68F1
S315080047D8BB60FB68154A93420ED9BB6803F40043CD
S315080047E8002B09D03B685A013B69134403F530632B
S315080047F81A464FF400439360786805F079FFFB681A
S315080048080A4A93420CD97B689B79012B08D17B68A5
S3150800481818687B6803F29C431A46012103F0B0FB2B
S31508004828002318461837BD4680BD00BF0A30544FC6
S3150800483880B485B000AF78600B46FB7013463B80A2
S315080048487B681B685B6ABB60FB78002B07D13B88D3
S3150800485819047B681B68BA680A439A6228E07B6869
S315080048681B689B6A1B0CBA681344BB600023FB735E
S315080048780DE07B681A68FB7B40339B0013445B6832
S315080048881B0CBA681344BB60FB7B0133FB73FA7BCA
S31508004898FB78013B9A42ECD33B8818047B68196875
S315080048A8FB78013BBA68024340339B000B445A60C5
S315080048B8002318461437BD465DF8047B704780B454
S315080048C883B000AF78600B467B807B681B687A8864
S315080048D85A62002318460C37BD465DF8047B7047B4
S315080048E880B483B000AF78600B46FB7000BF0C3706
S315080048F8BD465DF8047B704780B586B000AF786022
S315080049087B68002B01D1012367E27B681B6803F0EB
S315080049180103002B75D0884B9B6803F00C03042B06
S315080049280CD0854B9B6803F00C03082B12D1824BDD
S315080049385B6803F48003B3F5800F0BD17E4B1B68C5
S3150800494803F40033002B5BD07B685B68002B57D1D8
S31508004958012342E27B685B68B3F5803F06D1764B54
S315080049681B68754A43F4803313601DE07B685B68EF
S31508004978B3F5A02F0CD1704B1B686F4A43F48023FC
S3150800498813606D4B1B686C4A43F4803313600BE065
S31508004998694B1B68684A23F480331360664B1B68A7
S315080049A8654A23F4802313607B685B68002B13D061
S315080049B8FDF746FA386108E0FDF742FA02463B6910
S315080049C8D31A642B01D9032307E25B4B1B6803F44C
S315080049D80033002BF0D014E0FDF732FA386108E00E
S315080049E8FDF72EFA02463B69D31A642B01D903232D
S315080049F8F3E1514B1B6803F40033002BF0D100E0B8
S31508004A0800BF7B681B6803F00203002B63D04A4B80
S31508004A189B6803F00C03002B0BD0474B9B6803F0ED
S31508004A280C03082B1CD1444B5B6803F48003002B4A
S31508004A3816D1414B1B6803F00203002B05D07B688F
S31508004A48DB68012B01D00123C7E13B4B1B6823F028
S31508004A58F8027B681B69DB00374913430B603AE0A9
S31508004A687B68DB68002B20D0344B01221A60FDF7DF
S31508004A78E7F9386108E0FDF7E3F902463B69D31A16
S31508004A88022B01D90323A8E12B4B1B6803F0020369
S31508004A98002BF0D0284B1B6823F0F8027B681B69AB
S31508004AA8DB00254913430B6015E0244B00221A60E6
S31508004AB8FDF7C6F9386108E0FDF7C2F902463B6911
S31508004AC8D31A022B01D9032387E11B4B1B6803F072
S31508004AD80203002BF0D17B681B6803F00803002B40
S31508004AE836D07B685B69002B16D0154B01221A60F5
S31508004AF8FDF7A6F9386108E0FDF7A2F902463B6911
S31508004B08D31A022B01D9032367E10B4B5B6F03F01A
S31508004B180203002BF0D01BE0094B00221A60FDF7B0
S31508004B288FF938610EE0FDF78BF902463B69D31A0F
S31508004B38022B07D9032350E10038024000004742F8
S31508004B48800E4742884B5B6F03F00203002BEAD1BD
S31508004B587B681B6803F00403002B00F0978000238A
S31508004B68FB75814B1B6C03F08053002B0FD1002378
S31508004B78BB607D4B1B6C7C4A43F0805313647A4BAD
S31508004B881B6C03F08053BB60BB680123FB75774B2E
S31508004B981B6803F48073002B18D1744B1B68734A7F
S31508004BA843F480731360FDF74BF9386108E0FDF7A5
S31508004BB847F902463B69D31A022B01D903230CE1AC
S31508004BC86A4B1B6803F48073002BF0D07B689B68DC
S31508004BD8012B06D1644B1B6F634A43F00103136725
S31508004BE81CE07B689B68052B0CD15F4B1B6F5E4AE4
S31508004BF843F0040313675C4B1B6F5B4A43F00103DE
S31508004C0813670BE0584B1B6F574A23F001031367CA
S31508004C18554B1B6F544A23F0040313677B689B683C
S31508004C28002B15D0FDF70CF938610AE0FDF708F9ED
S31508004C3802463B69D31A41F28832934201D90323C3
S31508004C48CBE0494B1B6F03F00203002BEED014E0B0
S31508004C58FDF7F6F838610AE0FDF7F2F802463B690F
S31508004C68D31A41F28832934201D90323B5E03E4B61
S31508004C781B6F03F00203002BEED1FB7D012B05D138
S31508004C88394B1B6C384A23F0805313647B689B693D
S31508004C98002B00F0A180344B9B6803F00C03082B0B
S31508004CA85CD07B689B69022B41D1314B00221A6084
S31508004CB8FDF7C6F8386108E0FDF7C2F802463B6911
S31508004CC8D31A022B01D9032387E0274B1B6803F065
S31508004CD80073002BF0D17B68DA697B681B6A1A4374
S31508004CE87B685B6A9B011A437B689B6A5B08013B86
S31508004CF81B041A437B68DB6A1B061B4913434B6074
S31508004D081B4B01221A60FDF79BF8386108E0FDF78E
S31508004D1897F802463B69D31A022B01D903235CE0AC
S31508004D28114B1B6803F00073002BF0D054E0104BAE
S31508004D3800221A60FDF784F8386108E0FDF780F864
S31508004D4802463B69D31A022B01D9032345E0064BD1
S31508004D581B6803F00073002BF0D13DE07B689B6964
S31508004D68012B07D1012338E00038024000700040C3
S31508004D78600047421B4B5B68FB607B689B69012B9D
S31508004D8828D0FB6803F480027B68DB699A4221D144
S31508004D98FB6803F03F027B681B6A9A421AD1FA68D5
S31508004DA847F6C07313407A68526A9201934211D142
S31508004DB8FB6803F440327B689B6A5B08013B1B046B
S31508004DC89A4207D1FB6803F070627B68DB6A1B06A8
S31508004DD89A4201D0012300E0002318461837BD4639
S31508004DE880BD00BF0038024080B584B000AF786047
S31508004DF839607B68002B01D10123CCE0684B1B681E
S31508004E0803F007033A689A420CD9654B3A68D2B256
S31508004E181A70634B1B6803F007033A689A4201D075
S31508004E280123B8E07B681B6803F00203002B20D037
S31508004E387B681B6803F00403002B05D0594B9B6855
S31508004E48584A43F4E05393607B681B6803F00803E9
S31508004E58002B05D0534B9B68524A43F46043936032
S31508004E68504B9B6823F0F0027B689B684D491343B7
S31508004E788B607B681B6803F00103002B44D07B68B2
S31508004E885B68012B07D1474B1B6803F40033002BDB
S31508004E9819D101237FE07B685B68022B03D07B6806
S31508004EA85B68032B07D13F4B1B6803F00073002B85
S31508004EB809D101236FE03B4B1B6803F00203002B63
S31508004EC801D1012367E0374B9B6823F003027B680F
S31508004ED85B68344913438B60FCF7B2FFF8600AE055
S31508004EE8FCF7AEFF0246FB68D31A41F288329342B2
S31508004EF801D903234FE02B4B9B6803F00C027B6810
S31508004F085B689B009A42EBD1254B1B6803F00703A5
S31508004F183A689A420CD2224B3A68D2B21A70204B97
S31508004F281B6803F007033A689A4201D0012332E066
S31508004F387B681B6803F00403002B08D0194B9B6891
S31508004F4823F4E0527B68DB68164913438B607B6859
S31508004F581B6803F00803002B09D0124B9B6823F43F
S31508004F6860427B681B69DB000E4913438B6000F0BF
S31508004F7821F802460B4B9B681B0903F00F030A49E5
S31508004F88CB5C22FA03F3094A1360094B1B681846D7
S31508004F98FCF712FF002318461037BD4680BD00BF30
S31508004FA8003C02400038024060AD000800000020BE
S31508004FB8040000202DE9B04F94B000AF00237B64AD
S31508004FC80023FB6400233B640023BB64794B9B687E
S31508004FD803F00C03082B0DD0082B00F2E180002BF8
S31508004FE802D0042B03D0DBE0734BBB64DBE0734BC6
S31508004FF8BB64D8E06F4B5B6803F03F037B646D4B7B
S315080050085B6803F48003002B63D06A4B5B689B09D3
S315080050180022BB63FA63BB6BC3F308033B63002335
S315080050287B63D7E90C4522462B464FF000004FF024
S315080050380001590141EAD261500102460B46214650
S31508005048511A3961294663EB01037B614FF0000267
S315080050584FF00003D7E904AB59468B01514643EA9A
S31508005068916351468A015146B2EB0108594663EBEA
S3150800507801094FF000024FF000034FEAC90343EA5B
S3150800508858734FEAC80290469946234618EB030315
S31508005098BB602B4649EB0303FB604FF000024FF059
S315080050A80003D7E9024529464B02214643EAD1536C
S315080050B821464A02104619467B6C0022BB62FA62F0
S315080050C8D7E90A23FBF77CF802460B461346FB6426
S315080050D858E0384B5B689B09002218461146C0F30E
S315080050E808033B6200237B62D7E9088942464B4698
S315080050F84FF000004FF00001590141EAD261500112
S3150800510802460B464146B2EB010A494663EB010BD8
S315080051184FF000024FF000034FEA8B1343EA9A63F5
S315080051284FEA8A12B2EB0A0463EB0B054FF000024A
S315080051384FF00003EB0043EA5473E20014461D4699
S315080051484346E3183B604B4645EB03037B604FF049
S3150800515800024FF00003D7E9004529468B0221468D
S3150800516843EA915321468A02104619467B6C002267
S31508005178BB61FA61D7E90623FBF722F802460B4614
S315080051881346FB640B4B5B681B0C03F003030133E4
S315080051985B003B64FA6C3B6CB2FBF3F3BB6402E05E
S315080051A8054BBB6400BFBB6C18465037BD46BDE807
S315080051B8B08F00BF003802400024F40000127A00BD
S315080051C880B400AF034B1B681846BD465DF8047BE0
S315080051D8704700BF0000002080B500AFFFF7F0FF5A
S315080051E80246054B9B689B0A03F007030349CB5CF9
S315080051F822FA03F3184680BD0038024070AD00084D
S3150800520880B500AFFFF7DCFF0246054B9B685B0BD2
S3150800521803F007030349CB5C22FA03F3184680BD5B
S315080052280038024070AD000880B582B000AF7860DB
S315080052387B68002B01D1012341E07B6893F83D3058
S31508005248DBB2002B06D17B68002283F83C207868FD
S31508005258FCF7ECFB7B68022283F83D207B681A681A
S315080052687B6804331946104600F016FD7B68012250
S3150800527883F846207B68012283F83E207B68012252
S3150800528883F83F207B68012283F840207B68012247
S3150800529883F841207B68012283F842207B68012233
S315080052A883F843207B68012283F844207B6801221F
S315080052B883F845207B68012283F83D200023184699
S315080052C80837BD4680BD000080B485B000AF786059
S315080052D87B6893F83D30DBB2012B01D001234EE001
S315080052E87B68022283F83D207B681B68DA687B683E
S315080052F81B6842F00102DA607B681B68234A9342FE
S3150800530822D07B681B68B3F1804F1DD07B681B6869
S315080053181F4A934218D07B681B681E4A934213D0CB
S315080053287B681B681C4A93420ED07B681B681B4A1D
S31508005338934209D07B681B68194A934204D07B6854
S315080053481B68184A934211D17B681B689B6803F04F
S315080053580703FB60FB68062B10D07B681B681A6876
S315080053687B681B6842F001021A6007E07B681B68C5
S315080053781A687B681B6842F001021A6000231846FF
S315080053881437BD465DF8047B704700BF000001402E
S315080053980004004000080040000C004000040140DA
S315080053A8004001400018004080B582B000AF786020
S315080053B87B68002B01D1012341E07B6893F83D30D7
S315080053C8DBB2002B06D17B68002283F83C2078687C
S315080053D800F039F87B68022283F83D207B681A6852
S315080053E87B6804331946104600F056FC7B68012290
S315080053F883F846207B68012283F83E207B680122D1
S3150800540883F83F207B68012283F840207B680122C5
S3150800541883F841207B68012283F842207B680122B1
S3150800542883F843207B68012283F844207B6801229D
S3150800543883F845207B68012283F83D200023184617
S315080054480837BD4680BD80B483B000AF786000BF1A
S315080054580C37BD465DF8047B704780B582B000AF4F
S3150800546878607B68002B01D1012341E07B6893F8BB
S315080054783D30DBB2002B06D17B68002283F83C203E
S31508005488786800F039F87B68022283F83D207B6843
S315080054981A687B6804331946104600F0FDFB7B68DA
S315080054A8012283F846207B68012283F83E207B6820
S315080054B8012283F83F207B68012283F840207B6815
S315080054C8012283F841207B68012283F842207B6801
S315080054D8012283F843207B68012283F844207B68ED
S315080054E8012283F845207B68012283F83D200023A2
S315080054F818460837BD4680BD80B483B000AF7860CB
